{
  "contractName": "CosmeticsTraceability",
  "abi": [
    {
      "anonymous": false,
      "inputs": [
        {
          "indexed": false,
          "internalType": "uint256",
          "name": "id",
          "type": "uint256"
        },
        {
          "indexed": false,
          "internalType": "string",
          "name": "name",
          "type": "string"
        }
      ],
      "name": "ProductCreated",
      "type": "event"
    },
    {
      "anonymous": false,
      "inputs": [
        {
          "indexed": false,
          "internalType": "uint256",
          "name": "id",
          "type": "uint256"
        },
        {
          "indexed": false,
          "internalType": "string",
          "name": "newStatus",
          "type": "string"
        }
      ],
      "name": "StatusUpdated",
      "type": "event"
    },
    {
      "inputs": [],
      "name": "productCount",
      "outputs": [
        {
          "internalType": "uint256",
          "name": "",
          "type": "uint256"
        }
      ],
      "stateMutability": "view",
      "type": "function",
      "constant": true
    },
    {
      "inputs": [
        {
          "internalType": "uint256",
          "name": "",
          "type": "uint256"
        }
      ],
      "name": "products",
      "outputs": [
        {
          "internalType": "string",
          "name": "name",
          "type": "string"
        },
        {
          "internalType": "string",
          "name": "batchID",
          "type": "string"
        },
        {
          "internalType": "uint256",
          "name": "manufactureDate",
          "type": "uint256"
        },
        {
          "internalType": "string",
          "name": "origin",
          "type": "string"
        },
        {
          "internalType": "bool",
          "name": "isAuthentic",
          "type": "bool"
        }
      ],
      "stateMutability": "view",
      "type": "function",
      "constant": true
    },
    {
      "inputs": [
        {
          "internalType": "string",
          "name": "_name",
          "type": "string"
        },
        {
          "internalType": "string",
          "name": "_batchID",
          "type": "string"
        },
        {
          "internalType": "uint256",
          "name": "_manufactureDate",
          "type": "uint256"
        },
        {
          "internalType": "string",
          "name": "_origin",
          "type": "string"
        }
      ],
      "name": "createProduct",
      "outputs": [],
      "stateMutability": "nonpayable",
      "type": "function"
    },
    {
      "inputs": [
        {
          "internalType": "uint256",
          "name": "_id",
          "type": "uint256"
        },
        {
          "internalType": "string",
          "name": "_newStatus",
          "type": "string"
        }
      ],
      "name": "updateStatus",
      "outputs": [],
      "stateMutability": "nonpayable",
      "type": "function"
    },
    {
      "inputs": [
        {
          "internalType": "uint256",
          "name": "_id",
          "type": "uint256"
        }
      ],
      "name": "verifyProduct",
      "outputs": [
        {
          "internalType": "string",
          "name": "name",
          "type": "string"
        },
        {
          "internalType": "string",
          "name": "batchID",
          "type": "string"
        },
        {
          "internalType": "uint256",
          "name": "manufactureDate",
          "type": "uint256"
        },
        {
          "internalType": "string",
          "name": "origin",
          "type": "string"
        },
        {
          "internalType": "bool",
          "name": "isAuthentic",
          "type": "bool"
        },
        {
          "internalType": "string[]",
          "name": "history",
          "type": "string[]"
        }
      ],
      "stateMutability": "view",
      "type": "function",
      "constant": true
    }
  ],
  "bytecode": "0x6080604052600060015534801561001557600080fd5b506111ad806100256000396000f3fe608060405234801561001057600080fd5b50600436106100575760003560e01c806312c891961461005c578063524e8462146100785780637acc0b20146100ad578063d1b34dd8146100e1578063e0f6ef87146100fd575b600080fd5b61007660048036038101906100719190610b57565b61011b565b005b610092600480360381019061008d9190610c02565b610350565b6040516100a496959493929190610e40565b60405180910390f35b6100c760048036038101906100c29190610c02565b6106b5565b6040516100d8959493929190610dd8565b60405180910390f35b6100fb60048036038101906100f69190610c2b565b610890565b005b61010561096d565b6040516101129190610edd565b60405180910390f35b6001600081548092919061012e90611079565b91905055506040518060c00160405280858152602001848152602001838152602001828152602001600115158152602001600067ffffffffffffffff8111156101a0577f4e487b7100000000000000000000000000000000000000000000000000000000600052604160045260246000fd5b6040519080825280602002602001820160405280156101d357816020015b60608152602001906001900390816101be5790505b5081525060008060015481526020019081526020016000206000820151816000019080519060200190610207929190610973565b506020820151816001019080519060200190610224929190610973565b5060408201518160020155606082015181600301908051906020019061024b929190610973565b5060808201518160040160006101000a81548160ff02191690831515021790555060a08201518160050190805190602001906102889291906109f9565b50905050600080600154815260200190815260200160002060050180600181540180825580915050600190039060005260206000200160006040518060400160405280601781526020017f43726561746564206279204d616e7566616374757265720000000000000000008152509091909150908051906020019061030e929190610973565b507f543247085674b00368d9cd41416be705a4c27143c024163a6f58bf12a41992f560015485604051610342929190610ef8565b60405180910390a150505050565b6060806000606060006060600154871115801561036d5750600087115b6103ac576040517f08c379a00000000000000000000000000000000000000000000000000000000081526004016103a390610ebd565b60405180910390fd5b60008060008981526020019081526020016000206040518060c00160405290816000820180546103db90611047565b80601f016020809104026020016040519081016040528092919081815260200182805461040790611047565b80156104545780601f1061042957610100808354040283529160200191610454565b820191906000526020600020905b81548152906001019060200180831161043757829003601f168201915b5050505050815260200160018201805461046d90611047565b80601f016020809104026020016040519081016040528092919081815260200182805461049990611047565b80156104e65780601f106104bb576101008083540402835291602001916104e6565b820191906000526020600020905b8154815290600101906020018083116104c957829003601f168201915b505050505081526020016002820154815260200160038201805461050990611047565b80601f016020809104026020016040519081016040528092919081815260200182805461053590611047565b80156105825780601f1061055757610100808354040283529160200191610582565b820191906000526020600020905b81548152906001019060200180831161056557829003601f168201915b505050505081526020016004820160009054906101000a900460ff1615151515815260200160058201805480602002602001604051908101604052809291908181526020016000905b828210156106775783829060005260206000200180546105ea90611047565b80601f016020809104026020016040519081016040528092919081815260200182805461061690611047565b80156106635780601f1061063857610100808354040283529160200191610663565b820191906000526020600020905b81548152906001019060200180831161064657829003601f168201915b5050505050815260200190600101906105cb565b50505050815250509050806000015181602001518260400151836060015184608001518560a001519650965096509650965096505091939550919395565b60006020528060005260406000206000915090508060000180546106d890611047565b80601f016020809104026020016040519081016040528092919081815260200182805461070490611047565b80156107515780601f1061072657610100808354040283529160200191610751565b820191906000526020600020905b81548152906001019060200180831161073457829003601f168201915b50505050509080600101805461076690611047565b80601f016020809104026020016040519081016040528092919081815260200182805461079290611047565b80156107df5780601f106107b4576101008083540402835291602001916107df565b820191906000526020600020905b8154815290600101906020018083116107c257829003601f168201915b5050505050908060020154908060030180546107fa90611047565b80601f016020809104026020016040519081016040528092919081815260200182805461082690611047565b80156108735780601f1061084857610100808354040283529160200191610873565b820191906000526020600020905b81548152906001019060200180831161085657829003601f168201915b5050505050908060040160009054906101000a900460ff16905085565b60015482111580156108a25750600082115b6108e1576040517f08c379a00000000000000000000000000000000000000000000000000000000081526004016108d890610ebd565b60405180910390fd5b6000808381526020019081526020016000206005018190806001815401808255809150506001900390600052602060002001600090919091909150908051906020019061092f929190610973565b507fdc280875b120650ffe3edf5f724f07fd086361a32c2a387fe34b495f5679e77d8282604051610961929190610ef8565b60405180910390a15050565b60015481565b82805461097f90611047565b90600052602060002090601f0160209004810192826109a157600085556109e8565b82601f106109ba57805160ff19168380011785556109e8565b828001600101855582156109e8579182015b828111156109e75782518255916020019190600101906109cc565b5b5090506109f59190610a59565b5090565b828054828255906000526020600020908101928215610a48579160200282015b82811115610a47578251829080519060200190610a37929190610973565b5091602001919060010190610a19565b5b509050610a559190610a76565b5090565b5b80821115610a72576000816000905550600101610a5a565b5090565b5b80821115610a965760008181610a8d9190610a9a565b50600101610a77565b5090565b508054610aa690611047565b6000825580601f10610ab85750610ad7565b601f016020900490600052602060002090810190610ad69190610a59565b5b50565b6000610aed610ae884610f59565b610f28565b905082815260208101848484011115610b0557600080fd5b610b10848285611005565b509392505050565b600082601f830112610b2957600080fd5b8135610b39848260208601610ada565b91505092915050565b600081359050610b5181611160565b92915050565b60008060008060808587031215610b6d57600080fd5b600085013567ffffffffffffffff811115610b8757600080fd5b610b9387828801610b18565b945050602085013567ffffffffffffffff811115610bb057600080fd5b610bbc87828801610b18565b9350506040610bcd87828801610b42565b925050606085013567ffffffffffffffff811115610bea57600080fd5b610bf687828801610b18565b91505092959194509250565b600060208284031215610c1457600080fd5b6000610c2284828501610b42565b91505092915050565b60008060408385031215610c3e57600080fd5b6000610c4c85828601610b42565b925050602083013567ffffffffffffffff811115610c6957600080fd5b610c7585828601610b18565b9150509250929050565b6000610c8b8383610d17565b905092915050565b6000610c9e82610f99565b610ca88185610fbc565b935083602082028501610cba85610f89565b8060005b85811015610cf65784840389528151610cd78582610c7f565b9450610ce283610faf565b925060208a01995050600181019050610cbe565b50829750879550505050505092915050565b610d1181610fef565b82525050565b6000610d2282610fa4565b610d2c8185610fcd565b9350610d3c818560208601611014565b610d458161114f565b840191505092915050565b6000610d5b82610fa4565b610d658185610fde565b9350610d75818560208601611014565b610d7e8161114f565b840191505092915050565b6000610d96601283610fde565b91507f496e76616c69642070726f6475637420494400000000000000000000000000006000830152602082019050919050565b610dd281610ffb565b82525050565b600060a0820190508181036000830152610df28188610d50565b90508181036020830152610e068187610d50565b9050610e156040830186610dc9565b8181036060830152610e278185610d50565b9050610e366080830184610d08565b9695505050505050565b600060c0820190508181036000830152610e5a8189610d50565b90508181036020830152610e6e8188610d50565b9050610e7d6040830187610dc9565b8181036060830152610e8f8186610d50565b9050610e9e6080830185610d08565b81810360a0830152610eb08184610c93565b9050979650505050505050565b60006020820190508181036000830152610ed681610d89565b9050919050565b6000602082019050610ef26000830184610dc9565b92915050565b6000604082019050610f0d6000830185610dc9565b8181036020830152610f1f8184610d50565b90509392505050565b6000604051905081810181811067ffffffffffffffff82111715610f4f57610f4e611120565b5b8060405250919050565b600067ffffffffffffffff821115610f7457610f73611120565b5b601f19601f8301169050602081019050919050565b6000819050602082019050919050565b600081519050919050565b600081519050919050565b6000602082019050919050565b600082825260208201905092915050565b600082825260208201905092915050565b600082825260208201905092915050565b60008115159050919050565b6000819050919050565b82818337600083830152505050565b60005b83811015611032578082015181840152602081019050611017565b83811115611041576000848401525b50505050565b6000600282049050600182168061105f57607f821691505b60208210811415611073576110726110f1565b5b50919050565b600061108482610ffb565b91507fffffffffffffffffffffffffffffffffffffffffffffffffffffffffffffffff8214156110b7576110b66110c2565b5b600182019050919050565b7f4e487b7100000000000000000000000000000000000000000000000000000000600052601160045260246000fd5b7f4e487b7100000000000000000000000000000000000000000000000000000000600052602260045260246000fd5b7f4e487b7100000000000000000000000000000000000000000000000000000000600052604160045260246000fd5b6000601f19601f8301169050919050565b61116981610ffb565b811461117457600080fd5b5056fea2646970667358221220f5814389c0919fc37ce4b3a3bd4f80a39f26db1d88299605600504f988ce748964736f6c63430008000033",
  "immutableReferences": {},
  "source": "// SPDX-License-Identifier: MIT\r\npragma solidity ^0.8.0;\r\n\r\ncontract CosmeticsTraceability {\r\n    struct Product {\r\n        string name;              // Tn sn phm\r\n        string batchID;           // M l\r\n        uint manufactureDate;     // Ngy sn xut (timestamp)\r\n        string origin;            // Ngun gc\r\n        bool isAuthentic;         // Xc thc (true nu chnh hng)\r\n        string[] history;         // Lch s trng thi (mng string)\r\n    }\r\n\r\n    mapping(uint => Product) public products; // Map ID sn phm -> chi tit\r\n    uint public productCount = 0;             // m sn phm\r\n\r\n    event ProductCreated(uint id, string name);\r\n    event StatusUpdated(uint id, string newStatus);\r\n\r\n    // Hm to sn phm (ch nh sn xut gi)\r\n    function createProduct(\r\n        string memory _name,\r\n        string memory _batchID,\r\n        uint _manufactureDate,\r\n        string memory _origin\r\n    ) public {\r\n        productCount++;\r\n        products[productCount] = Product(\r\n            _name,\r\n            _batchID,\r\n            _manufactureDate,\r\n            _origin,\r\n            true,\r\n            new string[](0) // Khi to mng rng ng c php\r\n        );\r\n        products[productCount].history.push(\"Created by Manufacturer\");\r\n        emit ProductCreated(productCount, _name);\r\n    }\r\n\r\n    // Hm cp nht trng thi (nh phn phi)\r\n    function updateStatus(uint _id, string memory _newStatus) public {\r\n        require(_id <= productCount && _id > 0, \"Invalid product ID\");\r\n        products[_id].history.push(_newStatus);\r\n        emit StatusUpdated(_id, _newStatus);\r\n    }\r\n\r\n    // Hm xc thc (ngi dng qut QR)\r\n    function verifyProduct(uint _id)\r\n        public\r\n        view\r\n        returns (\r\n            string memory name,\r\n            string memory batchID,\r\n            uint manufactureDate,\r\n            string memory origin,\r\n            bool isAuthentic,\r\n            string[] memory history\r\n        )\r\n    {\r\n        require(_id <= productCount && _id > 0, \"Invalid product ID\");\r\n        Product memory p = products[_id];\r\n        return (\r\n            p.name,\r\n            p.batchID,\r\n            p.manufactureDate,\r\n            p.origin,\r\n            p.isAuthentic,\r\n            p.history\r\n        );\r\n    }\r\n}\r\n",
  "sourcePath": "D:\\blockchain-cosmetics\\contracts\\CosmeticsTraceability.sol",
  "compiler": {
    "name": "solc",
    "version": "0.8.0+commit.c7dfd78e.Emscripten.clang"
  },
  "schemaVersion": "3.4.16",
  "updatedAt": "2026-01-31T08:50:28.919Z",
  "networkType": "ethereum",
  "devdoc": {
    "kind": "dev",
    "methods": {},
    "version": 1
  },
  "userdoc": {
    "kind": "user",
    "methods": {},
    "version": 1
  }
}