{
  "contractName": "CosmeticsTraceability",
  "abi": [
    {
      "anonymous": false,
      "inputs": [
        {
          "indexed": false,
          "internalType": "uint256",
          "name": "id",
          "type": "uint256"
        },
        {
          "indexed": false,
          "internalType": "address",
          "name": "newOwner",
          "type": "address"
        }
      ],
      "name": "OwnershipTransferred",
      "type": "event"
    },
    {
      "anonymous": false,
      "inputs": [
        {
          "indexed": false,
          "internalType": "uint256",
          "name": "id",
          "type": "uint256"
        },
        {
          "indexed": false,
          "internalType": "string",
          "name": "name",
          "type": "string"
        }
      ],
      "name": "ProductCreated",
      "type": "event"
    },
    {
      "anonymous": false,
      "inputs": [
        {
          "indexed": false,
          "internalType": "uint256",
          "name": "id",
          "type": "uint256"
        },
        {
          "indexed": false,
          "internalType": "string",
          "name": "newStatus",
          "type": "string"
        }
      ],
      "name": "StatusUpdated",
      "type": "event"
    },
    {
      "inputs": [],
      "name": "productCount",
      "outputs": [
        {
          "internalType": "uint256",
          "name": "",
          "type": "uint256"
        }
      ],
      "stateMutability": "view",
      "type": "function",
      "constant": true
    },
    {
      "inputs": [
        {
          "internalType": "uint256",
          "name": "",
          "type": "uint256"
        }
      ],
      "name": "products",
      "outputs": [
        {
          "internalType": "string",
          "name": "name",
          "type": "string"
        },
        {
          "internalType": "string",
          "name": "batchID",
          "type": "string"
        },
        {
          "internalType": "uint256",
          "name": "manufactureDate",
          "type": "uint256"
        },
        {
          "internalType": "string",
          "name": "origin",
          "type": "string"
        },
        {
          "internalType": "bool",
          "name": "isAuthentic",
          "type": "bool"
        },
        {
          "internalType": "address",
          "name": "owner",
          "type": "address"
        },
        {
          "internalType": "string",
          "name": "productImageUrl",
          "type": "string"
        },
        {
          "internalType": "string",
          "name": "certificationUrl",
          "type": "string"
        }
      ],
      "stateMutability": "view",
      "type": "function",
      "constant": true
    },
    {
      "inputs": [
        {
          "internalType": "string",
          "name": "_name",
          "type": "string"
        },
        {
          "internalType": "string",
          "name": "_batchID",
          "type": "string"
        },
        {
          "internalType": "uint256",
          "name": "_manufactureDate",
          "type": "uint256"
        },
        {
          "internalType": "string",
          "name": "_origin",
          "type": "string"
        },
        {
          "internalType": "string[]",
          "name": "_ingredients",
          "type": "string[]"
        },
        {
          "internalType": "string",
          "name": "_productImageUrl",
          "type": "string"
        },
        {
          "internalType": "string",
          "name": "_certificationUrl",
          "type": "string"
        }
      ],
      "name": "createProduct",
      "outputs": [],
      "stateMutability": "nonpayable",
      "type": "function"
    },
    {
      "inputs": [
        {
          "internalType": "uint256",
          "name": "_id",
          "type": "uint256"
        },
        {
          "internalType": "string",
          "name": "_newStatus",
          "type": "string"
        }
      ],
      "name": "updateStatus",
      "outputs": [],
      "stateMutability": "nonpayable",
      "type": "function"
    },
    {
      "inputs": [
        {
          "internalType": "uint256",
          "name": "_id",
          "type": "uint256"
        },
        {
          "internalType": "address",
          "name": "_newOwner",
          "type": "address"
        }
      ],
      "name": "transferOwnership",
      "outputs": [],
      "stateMutability": "nonpayable",
      "type": "function"
    },
    {
      "inputs": [
        {
          "internalType": "uint256",
          "name": "_id",
          "type": "uint256"
        }
      ],
      "name": "verifyProduct",
      "outputs": [
        {
          "internalType": "string",
          "name": "name",
          "type": "string"
        },
        {
          "internalType": "string",
          "name": "batchID",
          "type": "string"
        },
        {
          "internalType": "uint256",
          "name": "manufactureDate",
          "type": "uint256"
        },
        {
          "internalType": "string",
          "name": "origin",
          "type": "string"
        },
        {
          "internalType": "bool",
          "name": "isAuthentic",
          "type": "bool"
        },
        {
          "internalType": "string[]",
          "name": "history",
          "type": "string[]"
        },
        {
          "internalType": "address",
          "name": "owner",
          "type": "address"
        },
        {
          "internalType": "string[]",
          "name": "ingredients",
          "type": "string[]"
        },
        {
          "internalType": "string",
          "name": "productImageUrl",
          "type": "string"
        },
        {
          "internalType": "string",
          "name": "certificationUrl",
          "type": "string"
        }
      ],
      "stateMutability": "view",
      "type": "function",
      "constant": true
    }
  ],
  "bytecode": "0x6080604052600060015534801561001557600080fd5b506123ea806100256000396000f3fe608060405234801561001057600080fd5b50600436106100625760003560e01c806329507f7314610067578063524e8462146100835780637acc0b20146100bc57806381bdd5c3146100f3578063d1b34dd81461010f578063e0f6ef871461012b575b600080fd5b610081600480360381019061007c9190611792565b610149565b005b61009d60048036038101906100989190611769565b6103b4565b6040516100b39a99989796959493929190611b7e565b60405180910390f35b6100d660048036038101906100d19190611769565b610996565b6040516100ea989796959493929190611add565b60405180910390f35b61010d6004803603810190610108919061163b565b610cb3565b005b610129600480360381019061012491906117ce565b610fba565b005b61013361113a565b6040516101409190611ccb565b60405180910390f35b600154821115801561015b5750600082115b61019a576040517f08c379a000000000000000000000000000000000000000000000000000000000815260040161019190611c8b565b60405180910390fd5b3373ffffffffffffffffffffffffffffffffffffffff1660008084815260200190815260200160002060060160009054906101000a900473ffffffffffffffffffffffffffffffffffffffff1673ffffffffffffffffffffffffffffffffffffffff161461023d576040517f08c379a000000000000000000000000000000000000000000000000000000000815260040161023490611c6b565b60405180910390fd5b600073ffffffffffffffffffffffffffffffffffffffff168173ffffffffffffffffffffffffffffffffffffffff1614156102ad576040517f08c379a00000000000000000000000000000000000000000000000000000000081526004016102a490611cab565b60405180910390fd5b8060008084815260200190815260200160002060060160006101000a81548173ffffffffffffffffffffffffffffffffffffffff021916908373ffffffffffffffffffffffffffffffffffffffff16021790555060008083815260200190815260200160002060050161031f82611140565b60405160200161032f9190611abb565b6040516020818303038152906040529080600181540180825580915050600190039060005260206000200160009091909190915090805190602001906103769291906113bb565b507fba8cc72bdfdb4f3e2281c3f17f6be90c470f76dd1106321a2928859835874bc282826040516103a8929190611ce6565b60405180910390a15050565b6060806000606060006060600060608060606001548b111580156103d8575060008b115b610417576040517f08c379a000000000000000000000000000000000000000000000000000000000815260040161040e90611c8b565b60405180910390fd5b60008060008d81526020019081526020016000206040518061014001604052908160008201805461044790612231565b80601f016020809104026020016040519081016040528092919081815260200182805461047390612231565b80156104c05780601f10610495576101008083540402835291602001916104c0565b820191906000526020600020905b8154815290600101906020018083116104a357829003601f168201915b505050505081526020016001820180546104d990612231565b80601f016020809104026020016040519081016040528092919081815260200182805461050590612231565b80156105525780601f1061052757610100808354040283529160200191610552565b820191906000526020600020905b81548152906001019060200180831161053557829003601f168201915b505050505081526020016002820154815260200160038201805461057590612231565b80601f01602080910402602001604051908101604052809291908181526020018280546105a190612231565b80156105ee5780601f106105c3576101008083540402835291602001916105ee565b820191906000526020600020905b8154815290600101906020018083116105d157829003601f168201915b505050505081526020016004820160009054906101000a900460ff1615151515815260200160058201805480602002602001604051908101604052809291908181526020016000905b828210156106e357838290600052602060002001805461065690612231565b80601f016020809104026020016040519081016040528092919081815260200182805461068290612231565b80156106cf5780601f106106a4576101008083540402835291602001916106cf565b820191906000526020600020905b8154815290600101906020018083116106b257829003601f168201915b505050505081526020019060010190610637565b5050505081526020016006820160009054906101000a900473ffffffffffffffffffffffffffffffffffffffff1673ffffffffffffffffffffffffffffffffffffffff1673ffffffffffffffffffffffffffffffffffffffff16815260200160078201805480602002602001604051908101604052809291908181526020016000905b8282101561081257838290600052602060002001805461078590612231565b80601f01602080910402602001604051908101604052809291908181526020018280546107b190612231565b80156107fe5780601f106107d3576101008083540402835291602001916107fe565b820191906000526020600020905b8154815290600101906020018083116107e157829003601f168201915b505050505081526020019060010190610766565b50505050815260200160088201805461082a90612231565b80601f016020809104026020016040519081016040528092919081815260200182805461085690612231565b80156108a35780601f10610878576101008083540402835291602001916108a3565b820191906000526020600020905b81548152906001019060200180831161088657829003601f168201915b505050505081526020016009820180546108bc90612231565b80601f01602080910402602001604051908101604052809291908181526020018280546108e890612231565b80156109355780601f1061090a57610100808354040283529160200191610935565b820191906000526020600020905b81548152906001019060200180831161091857829003601f168201915b5050505050815250509050806000015181602001518260400151836060015184608001518560a001518660c001518760e001518861010001518961012001519a509a509a509a509a509a509a509a509a509a50509193959799509193959799565b60006020528060005260406000206000915090508060000180546109b990612231565b80601f01602080910402602001604051908101604052809291908181526020018280546109e590612231565b8015610a325780601f10610a0757610100808354040283529160200191610a32565b820191906000526020600020905b815481529060010190602001808311610a1557829003601f168201915b505050505090806001018054610a4790612231565b80601f0160208091040260200160405190810160405280929190818152602001828054610a7390612231565b8015610ac05780601f10610a9557610100808354040283529160200191610ac0565b820191906000526020600020905b815481529060010190602001808311610aa357829003601f168201915b505050505090806002015490806003018054610adb90612231565b80601f0160208091040260200160405190810160405280929190818152602001828054610b0790612231565b8015610b545780601f10610b2957610100808354040283529160200191610b54565b820191906000526020600020905b815481529060010190602001808311610b3757829003601f168201915b5050505050908060040160009054906101000a900460ff16908060060160009054906101000a900473ffffffffffffffffffffffffffffffffffffffff1690806008018054610ba290612231565b80601f0160208091040260200160405190810160405280929190818152602001828054610bce90612231565b8015610c1b5780601f10610bf057610100808354040283529160200191610c1b565b820191906000526020600020905b815481529060010190602001808311610bfe57829003601f168201915b505050505090806009018054610c3090612231565b80601f0160208091040260200160405190810160405280929190818152602001828054610c5c90612231565b8015610ca95780601f10610c7e57610100808354040283529160200191610ca9565b820191906000526020600020905b815481529060010190602001808311610c8c57829003601f168201915b5050505050905088565b60016000815480929190610cc690612263565b9190505550604051806101400160405280888152602001878152602001868152602001858152602001600115158152602001600067ffffffffffffffff811115610d39577f4e487b7100000000000000000000000000000000000000000000000000000000600052604160045260246000fd5b604051908082528060200260200182016040528015610d6c57816020015b6060815260200190600190039081610d575790505b5081526020013373ffffffffffffffffffffffffffffffffffffffff1681526020018481526020018381526020018281525060008060015481526020019081526020016000206000820151816000019080519060200190610dce9291906113bb565b506020820151816001019080519060200190610deb9291906113bb565b50604082015181600201556060820151816003019080519060200190610e129291906113bb565b5060808201518160040160006101000a81548160ff02191690831515021790555060a0820151816005019080519060200190610e4f929190611441565b5060c08201518160060160006101000a81548173ffffffffffffffffffffffffffffffffffffffff021916908373ffffffffffffffffffffffffffffffffffffffff16021790555060e0820151816007019080519060200190610eb3929190611441565b50610100820151816008019080519060200190610ed19291906113bb565b50610120820151816009019080519060200190610eef9291906113bb565b50905050600080600154815260200190815260200160002060050180600181540180825580915050600190039060005260206000200160006040518060400160405280601781526020017f43726561746564206279204d616e75666163747572657200000000000000000081525090919091509080519060200190610f759291906113bb565b507f543247085674b00368d9cd41416be705a4c27143c024163a6f58bf12a41992f560015488604051610fa9929190611d0f565b60405180910390a150505050505050565b6001548211158015610fcc5750600082115b61100b576040517f08c379a000000000000000000000000000000000000000000000000000000000815260040161100290611c8b565b60405180910390fd5b3373ffffffffffffffffffffffffffffffffffffffff1660008084815260200190815260200160002060060160009054906101000a900473ffffffffffffffffffffffffffffffffffffffff1673ffffffffffffffffffffffffffffffffffffffff16146110ae576040517f08c379a00000000000000000000000000000000000000000000000000000000081526004016110a590611c4b565b60405180910390fd5b600080838152602001908152602001600020600501819080600181540180825580915050600190039060005260206000200160009091909190915090805190602001906110fc9291906113bb565b507fdc280875b120650ffe3edf5f724f07fd086361a32c2a387fe34b495f5679e77d828260405161112e929190611d0f565b60405180910390a15050565b60015481565b60606000602867ffffffffffffffff811115611185577f4e487b7100000000000000000000000000000000000000000000000000000000600052604160045260246000fd5b6040519080825280601f01601f1916602001820160405280156111b75781602001600182028036833780820191505090505b50905060005b601481101561136b5760008160136111d59190612132565b60086111e1919061209d565b60026111ed9190611f7f565b8573ffffffffffffffffffffffffffffffffffffffff1661120e9190611eca565b60f81b9050600060108260f81c6112259190611efb565b60f81b905060008160f81c601061123c91906120f7565b8360f81c61124a9190612166565b60f81b905061125882611375565b85856002611266919061209d565b8151811061129d577f4e487b7100000000000000000000000000000000000000000000000000000000600052603260045260246000fd5b60200101907effffffffffffffffffffffffffffffffffffffffffffffffffffffffffffff1916908160001a9053506112d581611375565b8560018660026112e5919061209d565b6112ef9190611e3d565b81518110611326577f4e487b7100000000000000000000000000000000000000000000000000000000600052603260045260246000fd5b60200101907effffffffffffffffffffffffffffffffffffffffffffffffffffffffffffff1916908160001a905350505050808061136390612263565b9150506111bd565b5080915050919050565b6000600a8260f81c60ff1610156113a05760308260f81c6113969190611e93565b60f81b90506113b6565b60578260f81c6113b09190611e93565b60f81b90505b919050565b8280546113c790612231565b90600052602060002090601f0160209004810192826113e95760008555611430565b82601f1061140257805160ff1916838001178555611430565b82800160010185558215611430579182015b8281111561142f578251825591602001919060010190611414565b5b50905061143d91906114a1565b5090565b828054828255906000526020600020908101928215611490579160200282015b8281111561148f57825182908051906020019061147f9291906113bb565b5091602001919060010190611461565b5b50905061149d91906114be565b5090565b5b808211156114ba5760008160009055506001016114a2565b5090565b5b808211156114de57600081816114d591906114e2565b506001016114bf565b5090565b5080546114ee90612231565b6000825580601f10611500575061151f565b601f01602090049060005260206000209081019061151e91906114a1565b5b50565b600061153561153084611d70565b611d3f565b9050808382526020820190508260005b85811015611575578135850161155b88826115fc565b845260208401935060208301925050600181019050611545565b5050509392505050565b600061159261158d84611d9c565b611d3f565b9050828152602081018484840111156115aa57600080fd5b6115b58482856121ef565b509392505050565b6000813590506115cc81612386565b92915050565b600082601f8301126115e357600080fd5b81356115f3848260208601611522565b91505092915050565b600082601f83011261160d57600080fd5b813561161d84826020860161157f565b91505092915050565b6000813590506116358161239d565b92915050565b600080600080600080600060e0888a03121561165657600080fd5b600088013567ffffffffffffffff81111561167057600080fd5b61167c8a828b016115fc565b975050602088013567ffffffffffffffff81111561169957600080fd5b6116a58a828b016115fc565b96505060406116b68a828b01611626565b955050606088013567ffffffffffffffff8111156116d357600080fd5b6116df8a828b016115fc565b945050608088013567ffffffffffffffff8111156116fc57600080fd5b6117088a828b016115d2565b93505060a088013567ffffffffffffffff81111561172557600080fd5b6117318a828b016115fc565b92505060c088013567ffffffffffffffff81111561174e57600080fd5b61175a8a828b016115fc565b91505092959891949750929550565b60006020828403121561177b57600080fd5b600061178984828501611626565b91505092915050565b600080604083850312156117a557600080fd5b60006117b385828601611626565b92505060206117c4858286016115bd565b9150509250929050565b600080604083850312156117e157600080fd5b60006117ef85828601611626565b925050602083013567ffffffffffffffff81111561180c57600080fd5b611818858286016115fc565b9150509250929050565b600061182e83836118c9565b905092915050565b61183f8161219a565b82525050565b600061185082611ddc565b61185a8185611dff565b93508360208202850161186c85611dcc565b8060005b858110156118a857848403895281516118898582611822565b945061189483611df2565b925060208a01995050600181019050611870565b50829750879550505050505092915050565b6118c3816121ac565b82525050565b60006118d482611de7565b6118de8185611e10565b93506118ee8185602086016121fe565b6118f781612368565b840191505092915050565b600061190d82611de7565b6119178185611e21565b93506119278185602086016121fe565b61193081612368565b840191505092915050565b600061194682611de7565b6119508185611e32565b93506119608185602086016121fe565b80840191505092915050565b6000611979601583611e21565b91507f4f6e6c79206f776e65722063616e2075706461746500000000000000000000006000830152602082019050919050565b60006119b9601f83611e21565b91507f4f6e6c792063757272656e74206f776e65722063616e207472616e73666572006000830152602082019050919050565b60006119f9601283611e21565b91507f496e76616c69642070726f6475637420494400000000000000000000000000006000830152602082019050919050565b6000611a39601983611e21565b91507f496e76616c6964206e6577206f776e65722061646472657373000000000000006000830152602082019050919050565b6000611a79601983611e32565b91507f5472616e73666572726564206f776e65727368697020746f20000000000000006000830152601982019050919050565b611ab5816121d8565b82525050565b6000611ac682611a6c565b9150611ad2828461193b565b915081905092915050565b6000610100820190508181036000830152611af8818b611902565b90508181036020830152611b0c818a611902565b9050611b1b6040830189611aac565b8181036060830152611b2d8188611902565b9050611b3c60808301876118ba565b611b4960a0830186611836565b81810360c0830152611b5b8185611902565b905081810360e0830152611b6f8184611902565b90509998505050505050505050565b6000610140820190508181036000830152611b99818d611902565b90508181036020830152611bad818c611902565b9050611bbc604083018b611aac565b8181036060830152611bce818a611902565b9050611bdd60808301896118ba565b81810360a0830152611bef8188611845565b9050611bfe60c0830187611836565b81810360e0830152611c108186611845565b9050818103610100830152611c258185611902565b9050818103610120830152611c3a8184611902565b90509b9a5050505050505050505050565b60006020820190508181036000830152611c648161196c565b9050919050565b60006020820190508181036000830152611c84816119ac565b9050919050565b60006020820190508181036000830152611ca4816119ec565b9050919050565b60006020820190508181036000830152611cc481611a2c565b9050919050565b6000602082019050611ce06000830184611aac565b92915050565b6000604082019050611cfb6000830185611aac565b611d086020830184611836565b9392505050565b6000604082019050611d246000830185611aac565b8181036020830152611d368184611902565b90509392505050565b6000604051905081810181811067ffffffffffffffff82111715611d6657611d65612339565b5b8060405250919050565b600067ffffffffffffffff821115611d8b57611d8a612339565b5b602082029050602081019050919050565b600067ffffffffffffffff821115611db757611db6612339565b5b601f19601f8301169050602081019050919050565b6000819050602082019050919050565b600081519050919050565b600081519050919050565b6000602082019050919050565b600082825260208201905092915050565b600082825260208201905092915050565b600082825260208201905092915050565b600081905092915050565b6000611e48826121d8565b9150611e53836121d8565b9250827fffffffffffffffffffffffffffffffffffffffffffffffffffffffffffffffff03821115611e8857611e876122ac565b5b828201905092915050565b6000611e9e826121e2565b9150611ea9836121e2565b92508260ff03821115611ebf57611ebe6122ac565b5b828201905092915050565b6000611ed5826121d8565b9150611ee0836121d8565b925082611ef057611eef6122db565b5b828204905092915050565b6000611f06826121e2565b9150611f11836121e2565b925082611f2157611f206122db565b5b828204905092915050565b6000808291508390505b6001851115611f7657808604811115611f5257611f516122ac565b5b6001851615611f615780820291505b8081029050611f6f85612379565b9450611f36565b94509492505050565b6000611f8a826121d8565b9150611f95836121d8565b9250611fc27fffffffffffffffffffffffffffffffffffffffffffffffffffffffffffffffff8484611fca565b905092915050565b600082611fda5760019050612096565b81611fe85760009050612096565b8160018114611ffe576002811461200857612037565b6001915050612096565b60ff84111561201a576120196122ac565b5b8360020a915084821115612031576120306122ac565b5b50612096565b5060208310610133831016604e8410600b841016171561206c5782820a905083811115612067576120666122ac565b5b612096565b6120798484846001611f2c565b925090508184048111156120905761208f6122ac565b5b81810290505b9392505050565b60006120a8826121d8565b91506120b3836121d8565b9250817fffffffffffffffffffffffffffffffffffffffffffffffffffffffffffffffff04831182151516156120ec576120eb6122ac565b5b828202905092915050565b6000612102826121e2565b915061210d836121e2565b92508160ff0483118215151615612127576121266122ac565b5b828202905092915050565b600061213d826121d8565b9150612148836121d8565b92508282101561215b5761215a6122ac565b5b828203905092915050565b6000612171826121e2565b915061217c836121e2565b92508282101561218f5761218e6122ac565b5b828203905092915050565b60006121a5826121b8565b9050919050565b60008115159050919050565b600073ffffffffffffffffffffffffffffffffffffffff82169050919050565b6000819050919050565b600060ff82169050919050565b82818337600083830152505050565b60005b8381101561221c578082015181840152602081019050612201565b8381111561222b576000848401525b50505050565b6000600282049050600182168061224957607f821691505b6020821081141561225d5761225c61230a565b5b50919050565b600061226e826121d8565b91507fffffffffffffffffffffffffffffffffffffffffffffffffffffffffffffffff8214156122a1576122a06122ac565b5b600182019050919050565b7f4e487b7100000000000000000000000000000000000000000000000000000000600052601160045260246000fd5b7f4e487b7100000000000000000000000000000000000000000000000000000000600052601260045260246000fd5b7f4e487b7100000000000000000000000000000000000000000000000000000000600052602260045260246000fd5b7f4e487b7100000000000000000000000000000000000000000000000000000000600052604160045260246000fd5b6000601f19601f8301169050919050565b60008160011c9050919050565b61238f8161219a565b811461239a57600080fd5b50565b6123a6816121d8565b81146123b157600080fd5b5056fea2646970667358221220b9959f0ba5f2a47f73785789803a425cdcae4c064c5bb859c1ca7f4861c8601064736f6c63430008000033",
  "immutableReferences": {},
  "source": "// SPDX-License-Identifier: MIT\npragma solidity ^0.8.0;\n\ncontract CosmeticsTraceability {\n    struct Product {\n        string name;              // Tên sản phẩm\n        string batchID;           // Mã lô\n        uint manufactureDate;     // Ngày sản xuất (timestamp)\n        string origin;            // Nguồn gốc\n        bool isAuthentic;         // Xác thực (true nếu chính hãng)\n        string[] history;         // Lịch sử trạng thái (mảng string)\n        address owner;            // Quyền sở hữu (address ETH của owner hiện tại)\n        string[] ingredients;     // Thành phần (mảng string)\n        string productImageUrl;   // URL ảnh sản phẩm (IPFS)\n        string certificationUrl;  // URL chứng nhận sản xuất (IPFS)\n    }\n\n    mapping(uint => Product) public products; // Map ID sản phẩm -> chi tiết\n    uint public productCount = 0;             // Đếm sản phẩm\n\n    event ProductCreated(uint id, string name);\n    event StatusUpdated(uint id, string newStatus);\n    event OwnershipTransferred(uint id, address newOwner); // Event cho chuyển giao\n\n    // Hàm tạo sản phẩm (chỉ nhà sản xuất gọi)\n    function createProduct(\n        string memory _name,\n        string memory _batchID,\n        uint _manufactureDate,\n        string memory _origin,\n        string[] memory _ingredients,\n        string memory _productImageUrl,\n        string memory _certificationUrl\n    ) public {\n        productCount++;\n        products[productCount] = Product(\n            _name,\n            _batchID,\n            _manufactureDate,\n            _origin,\n            true,\n            new string[](0), // Khởi tạo mảng rỗng đúng cú pháp\n            msg.sender,      // Owner ban đầu là người gọi hàm (nhà sản xuất)\n            _ingredients,\n            _productImageUrl,\n            _certificationUrl\n        );\n        products[productCount].history.push(\"Created by Manufacturer\");\n        emit ProductCreated(productCount, _name);\n    }\n\n    // Hàm cập nhật trạng thái (chỉ owner hiện tại gọi được)\n    function updateStatus(uint _id, string memory _newStatus) public {\n        require(_id <= productCount && _id > 0, \"Invalid product ID\");\n        require(products[_id].owner == msg.sender, \"Only owner can update\"); // Restrict quyền\n        products[_id].history.push(_newStatus);\n        emit StatusUpdated(_id, _newStatus);\n    }\n\n    // Hàm chuyển giao quyền sở hữu (chỉ owner hiện tại gọi)\n    function transferOwnership(uint _id, address _newOwner) public {\n        require(_id <= productCount && _id > 0, \"Invalid product ID\");\n        require(products[_id].owner == msg.sender, \"Only current owner can transfer\");\n        require(_newOwner != address(0), \"Invalid new owner address\");\n        products[_id].owner = _newOwner;\n        products[_id].history.push(string(abi.encodePacked(\"Transferred ownership to \", toAsciiString(_newOwner))));\n        emit OwnershipTransferred(_id, _newOwner);\n    }\n\n    // Hàm xác thực (người dùng quét QR, trả về thêm owner và fields mới)\n    function verifyProduct(uint _id)\n        public\n        view\n        returns (\n            string memory name,\n            string memory batchID,\n            uint manufactureDate,\n            string memory origin,\n            bool isAuthentic,\n            string[] memory history,\n            address owner,\n            string[] memory ingredients,\n            string memory productImageUrl,\n            string memory certificationUrl\n        )\n    {\n        require(_id <= productCount && _id > 0, \"Invalid product ID\");\n        Product memory p = products[_id];\n        return (\n            p.name,\n            p.batchID,\n            p.manufactureDate,\n            p.origin,\n            p.isAuthentic,\n            p.history,\n            p.owner,\n            p.ingredients,\n            p.productImageUrl,\n            p.certificationUrl\n        );\n    }\n\n    // Helper để convert address thành string (đã sửa type conversion)\n    function toAsciiString(address x) internal pure returns (string memory) {\n        bytes memory s = new bytes(40);\n        for (uint i = 0; i < 20; i++) {\n            bytes1 b = bytes1(uint8(uint(uint160(x)) / (2**(8*(19 - i)))));\n            bytes1 hi = bytes1(uint8(b) / 16);\n            bytes1 lo = bytes1(uint8(b) - 16 * uint8(hi));\n            s[2*i] = char(hi);\n            s[2*i+1] = char(lo);\n        }\n        return string(s);\n    }\n\n    function char(bytes1 b) internal pure returns (bytes1 c) {\n        if (uint8(b) < 10) return bytes1(uint8(b) + 0x30);\n        else return bytes1(uint8(b) + 0x57);\n    }\n}",
  "sourcePath": "D:\\Demo Khoa Luan 7.2 - Sao chép\\contracts\\CosmeticsTraceability.sol",
  "compiler": {
    "name": "solc",
    "version": "0.8.0+commit.c7dfd78e.Emscripten.clang"
  },
  "schemaVersion": "3.4.16",
  "updatedAt": "2026-03-08T06:41:16.848Z",
  "networkType": "ethereum",
  "devdoc": {
    "kind": "dev",
    "methods": {},
    "version": 1
  },
  "userdoc": {
    "kind": "user",
    "methods": {},
    "version": 1
  }
}