{
  "contractName": "CosmeticsTraceability",
  "abi": [
    {
      "anonymous": false,
      "inputs": [
        {
          "indexed": false,
          "internalType": "uint256",
          "name": "id",
          "type": "uint256"
        },
        {
          "indexed": false,
          "internalType": "address",
          "name": "newOwner",
          "type": "address"
        }
      ],
      "name": "OwnershipTransferred",
      "type": "event"
    },
    {
      "anonymous": false,
      "inputs": [
        {
          "indexed": false,
          "internalType": "uint256",
          "name": "id",
          "type": "uint256"
        },
        {
          "indexed": false,
          "internalType": "string",
          "name": "name",
          "type": "string"
        }
      ],
      "name": "ProductCreated",
      "type": "event"
    },
    {
      "anonymous": false,
      "inputs": [
        {
          "indexed": false,
          "internalType": "uint256",
          "name": "id",
          "type": "uint256"
        },
        {
          "indexed": false,
          "internalType": "string",
          "name": "newStatus",
          "type": "string"
        }
      ],
      "name": "StatusUpdated",
      "type": "event"
    },
    {
      "inputs": [],
      "name": "productCount",
      "outputs": [
        {
          "internalType": "uint256",
          "name": "",
          "type": "uint256"
        }
      ],
      "stateMutability": "view",
      "type": "function",
      "constant": true
    },
    {
      "inputs": [
        {
          "internalType": "uint256",
          "name": "",
          "type": "uint256"
        }
      ],
      "name": "products",
      "outputs": [
        {
          "internalType": "string",
          "name": "name",
          "type": "string"
        },
        {
          "internalType": "string",
          "name": "batchID",
          "type": "string"
        },
        {
          "internalType": "uint256",
          "name": "manufactureDate",
          "type": "uint256"
        },
        {
          "internalType": "string",
          "name": "origin",
          "type": "string"
        },
        {
          "internalType": "bool",
          "name": "isAuthentic",
          "type": "bool"
        },
        {
          "internalType": "address",
          "name": "owner",
          "type": "address"
        }
      ],
      "stateMutability": "view",
      "type": "function",
      "constant": true
    },
    {
      "inputs": [
        {
          "internalType": "string",
          "name": "_name",
          "type": "string"
        },
        {
          "internalType": "string",
          "name": "_batchID",
          "type": "string"
        },
        {
          "internalType": "uint256",
          "name": "_manufactureDate",
          "type": "uint256"
        },
        {
          "internalType": "string",
          "name": "_origin",
          "type": "string"
        }
      ],
      "name": "createProduct",
      "outputs": [],
      "stateMutability": "nonpayable",
      "type": "function"
    },
    {
      "inputs": [
        {
          "internalType": "uint256",
          "name": "_id",
          "type": "uint256"
        },
        {
          "internalType": "string",
          "name": "_newStatus",
          "type": "string"
        }
      ],
      "name": "updateStatus",
      "outputs": [],
      "stateMutability": "nonpayable",
      "type": "function"
    },
    {
      "inputs": [
        {
          "internalType": "uint256",
          "name": "_id",
          "type": "uint256"
        },
        {
          "internalType": "address",
          "name": "_newOwner",
          "type": "address"
        }
      ],
      "name": "transferOwnership",
      "outputs": [],
      "stateMutability": "nonpayable",
      "type": "function"
    },
    {
      "inputs": [
        {
          "internalType": "uint256",
          "name": "_id",
          "type": "uint256"
        }
      ],
      "name": "verifyProduct",
      "outputs": [
        {
          "internalType": "string",
          "name": "name",
          "type": "string"
        },
        {
          "internalType": "string",
          "name": "batchID",
          "type": "string"
        },
        {
          "internalType": "uint256",
          "name": "manufactureDate",
          "type": "uint256"
        },
        {
          "internalType": "string",
          "name": "origin",
          "type": "string"
        },
        {
          "internalType": "bool",
          "name": "isAuthentic",
          "type": "bool"
        },
        {
          "internalType": "string[]",
          "name": "history",
          "type": "string[]"
        },
        {
          "internalType": "address",
          "name": "owner",
          "type": "address"
        }
      ],
      "stateMutability": "view",
      "type": "function",
      "constant": true
    }
  ],
  "bytecode": "0x6080604052600060015534801561001557600080fd5b50611e9b806100256000396000f3fe608060405234801561001057600080fd5b50600436106100625760003560e01c806312c891961461006757806329507f7314610083578063524e84621461009f5780637acc0b20146100d5578063d1b34dd81461010a578063e0f6ef8714610126575b600080fd5b610081600480360381019061007c9190611208565b610144565b005b61009d600480360381019061009891906112dc565b6103dc565b005b6100b960048036038101906100b491906112b3565b610647565b6040516100cc979695949392919061169d565b60405180910390f35b6100ef60048036038101906100ea91906112b3565b610a0d565b60405161010196959493929190611627565b60405180910390f35b610124600480360381019061011f9190611318565b610c0e565b005b61012e610d8e565b60405161013b91906117a8565b60405180910390f35b6001600081548092919061015790611d14565b91905055506040518060e00160405280858152602001848152602001838152602001828152602001600115158152602001600067ffffffffffffffff8111156101c9577f4e487b7100000000000000000000000000000000000000000000000000000000600052604160045260246000fd5b6040519080825280602002602001820160405280156101fc57816020015b60608152602001906001900390816101e75790505b5081526020013373ffffffffffffffffffffffffffffffffffffffff168152506000806001548152602001908152602001600020600082015181600001908051906020019061024c92919061100f565b50602082015181600101908051906020019061026992919061100f565b5060408201518160020155606082015181600301908051906020019061029092919061100f565b5060808201518160040160006101000a81548160ff02191690831515021790555060a08201518160050190805190602001906102cd929190611095565b5060c08201518160060160006101000a81548173ffffffffffffffffffffffffffffffffffffffff021916908373ffffffffffffffffffffffffffffffffffffffff160217905550905050600080600154815260200190815260200160002060050180600181540180825580915050600190039060005260206000200160006040518060400160405280601781526020017f43726561746564206279204d616e7566616374757265720000000000000000008152509091909150908051906020019061039a92919061100f565b507f543247085674b00368d9cd41416be705a4c27143c024163a6f58bf12a41992f5600154856040516103ce9291906117ec565b60405180910390a150505050565b60015482111580156103ee5750600082115b61042d576040517f08c379a000000000000000000000000000000000000000000000000000000000815260040161042490611768565b60405180910390fd5b3373ffffffffffffffffffffffffffffffffffffffff1660008084815260200190815260200160002060060160009054906101000a900473ffffffffffffffffffffffffffffffffffffffff1673ffffffffffffffffffffffffffffffffffffffff16146104d0576040517f08c379a00000000000000000000000000000000000000000000000000000000081526004016104c790611748565b60405180910390fd5b600073ffffffffffffffffffffffffffffffffffffffff168173ffffffffffffffffffffffffffffffffffffffff161415610540576040517f08c379a000000000000000000000000000000000000000000000000000000000815260040161053790611788565b60405180910390fd5b8060008084815260200190815260200160002060060160006101000a81548173ffffffffffffffffffffffffffffffffffffffff021916908373ffffffffffffffffffffffffffffffffffffffff1602179055506000808381526020019081526020016000206005016105b282610d94565b6040516020016105c29190611605565b60405160208183030381529060405290806001815401808255809150506001900390600052602060002001600090919091909150908051906020019061060992919061100f565b507fba8cc72bdfdb4f3e2281c3f17f6be90c470f76dd1106321a2928859835874bc2828260405161063b9291906117c3565b60405180910390a15050565b6060806000606060006060600060015488111580156106665750600088115b6106a5576040517f08c379a000000000000000000000000000000000000000000000000000000000815260040161069c90611768565b60405180910390fd5b60008060008a81526020019081526020016000206040518060e00160405290816000820180546106d490611ce2565b80601f016020809104026020016040519081016040528092919081815260200182805461070090611ce2565b801561074d5780601f106107225761010080835404028352916020019161074d565b820191906000526020600020905b81548152906001019060200180831161073057829003601f168201915b5050505050815260200160018201805461076690611ce2565b80601f016020809104026020016040519081016040528092919081815260200182805461079290611ce2565b80156107df5780601f106107b4576101008083540402835291602001916107df565b820191906000526020600020905b8154815290600101906020018083116107c257829003601f168201915b505050505081526020016002820154815260200160038201805461080290611ce2565b80601f016020809104026020016040519081016040528092919081815260200182805461082e90611ce2565b801561087b5780601f106108505761010080835404028352916020019161087b565b820191906000526020600020905b81548152906001019060200180831161085e57829003601f168201915b505050505081526020016004820160009054906101000a900460ff1615151515815260200160058201805480602002602001604051908101604052809291908181526020016000905b828210156109705783829060005260206000200180546108e390611ce2565b80601f016020809104026020016040519081016040528092919081815260200182805461090f90611ce2565b801561095c5780601f106109315761010080835404028352916020019161095c565b820191906000526020600020905b81548152906001019060200180831161093f57829003601f168201915b5050505050815260200190600101906108c4565b5050505081526020016006820160009054906101000a900473ffffffffffffffffffffffffffffffffffffffff1673ffffffffffffffffffffffffffffffffffffffff1673ffffffffffffffffffffffffffffffffffffffff16815250509050806000015181602001518260400151836060015184608001518560a001518660c00151975097509750975097509750975050919395979092949650565b6000602052806000526040600020600091509050806000018054610a3090611ce2565b80601f0160208091040260200160405190810160405280929190818152602001828054610a5c90611ce2565b8015610aa95780601f10610a7e57610100808354040283529160200191610aa9565b820191906000526020600020905b815481529060010190602001808311610a8c57829003601f168201915b505050505090806001018054610abe90611ce2565b80601f0160208091040260200160405190810160405280929190818152602001828054610aea90611ce2565b8015610b375780601f10610b0c57610100808354040283529160200191610b37565b820191906000526020600020905b815481529060010190602001808311610b1a57829003601f168201915b505050505090806002015490806003018054610b5290611ce2565b80601f0160208091040260200160405190810160405280929190818152602001828054610b7e90611ce2565b8015610bcb5780601f10610ba057610100808354040283529160200191610bcb565b820191906000526020600020905b815481529060010190602001808311610bae57829003601f168201915b5050505050908060040160009054906101000a900460ff16908060060160009054906101000a900473ffffffffffffffffffffffffffffffffffffffff16905086565b6001548211158015610c205750600082115b610c5f576040517f08c379a0000000000000000000000000000000000000000000000000000000008152600401610c5690611768565b60405180910390fd5b3373ffffffffffffffffffffffffffffffffffffffff1660008084815260200190815260200160002060060160009054906101000a900473ffffffffffffffffffffffffffffffffffffffff1673ffffffffffffffffffffffffffffffffffffffff1614610d02576040517f08c379a0000000000000000000000000000000000000000000000000000000008152600401610cf990611728565b60405180910390fd5b60008083815260200190815260200160002060050181908060018154018082558091505060019003906000526020600020016000909190919091509080519060200190610d5092919061100f565b507fdc280875b120650ffe3edf5f724f07fd086361a32c2a387fe34b495f5679e77d8282604051610d829291906117ec565b60405180910390a15050565b60015481565b60606000602867ffffffffffffffff811115610dd9577f4e487b7100000000000000000000000000000000000000000000000000000000600052604160045260246000fd5b6040519080825280601f01601f191660200182016040528015610e0b5781602001600182028036833780820191505090505b50905060005b6014811015610fbf576000816013610e299190611be3565b6008610e359190611b4e565b6002610e419190611a30565b8573ffffffffffffffffffffffffffffffffffffffff16610e62919061197b565b60f81b9050600060108260f81c610e7991906119ac565b60f81b905060008160f81c6010610e909190611ba8565b8360f81c610e9e9190611c17565b60f81b9050610eac82610fc9565b85856002610eba9190611b4e565b81518110610ef1577f4e487b7100000000000000000000000000000000000000000000000000000000600052603260045260246000fd5b60200101907effffffffffffffffffffffffffffffffffffffffffffffffffffffffffffff1916908160001a905350610f2981610fc9565b856001866002610f399190611b4e565b610f4391906118ee565b81518110610f7a577f4e487b7100000000000000000000000000000000000000000000000000000000600052603260045260246000fd5b60200101907effffffffffffffffffffffffffffffffffffffffffffffffffffffffffffff1916908160001a9053505050508080610fb790611d14565b915050610e11565b5080915050919050565b6000600a8260f81c60ff161015610ff45760308260f81c610fea9190611944565b60f81b905061100a565b60578260f81c6110049190611944565b60f81b90505b919050565b82805461101b90611ce2565b90600052602060002090601f01602090048101928261103d5760008555611084565b82601f1061105657805160ff1916838001178555611084565b82800160010185558215611084579182015b82811115611083578251825591602001919060010190611068565b5b50905061109191906110f5565b5090565b8280548282559060005260206000209081019282156110e4579160200282015b828111156110e35782518290805190602001906110d392919061100f565b50916020019190600101906110b5565b5b5090506110f19190611112565b5090565b5b8082111561110e5760008160009055506001016110f6565b5090565b5b8082111561113257600081816111299190611136565b50600101611113565b5090565b50805461114290611ce2565b6000825580601f106111545750611173565b601f01602090049060005260206000209081019061117291906110f5565b5b50565b60006111896111848461184d565b61181c565b9050828152602081018484840111156111a157600080fd5b6111ac848285611ca0565b509392505050565b6000813590506111c381611e37565b92915050565b600082601f8301126111da57600080fd5b81356111ea848260208601611176565b91505092915050565b60008135905061120281611e4e565b92915050565b6000806000806080858703121561121e57600080fd5b600085013567ffffffffffffffff81111561123857600080fd5b611244878288016111c9565b945050602085013567ffffffffffffffff81111561126157600080fd5b61126d878288016111c9565b935050604061127e878288016111f3565b925050606085013567ffffffffffffffff81111561129b57600080fd5b6112a7878288016111c9565b91505092959194509250565b6000602082840312156112c557600080fd5b60006112d3848285016111f3565b91505092915050565b600080604083850312156112ef57600080fd5b60006112fd858286016111f3565b925050602061130e858286016111b4565b9150509250929050565b6000806040838503121561132b57600080fd5b6000611339858286016111f3565b925050602083013567ffffffffffffffff81111561135657600080fd5b611362858286016111c9565b9150509250929050565b60006113788383611413565b905092915050565b61138981611c4b565b82525050565b600061139a8261188d565b6113a481856118b0565b9350836020820285016113b68561187d565b8060005b858110156113f257848403895281516113d3858261136c565b94506113de836118a3565b925060208a019950506001810190506113ba565b50829750879550505050505092915050565b61140d81611c5d565b82525050565b600061141e82611898565b61142881856118c1565b9350611438818560208601611caf565b61144181611e19565b840191505092915050565b600061145782611898565b61146181856118d2565b9350611471818560208601611caf565b61147a81611e19565b840191505092915050565b600061149082611898565b61149a81856118e3565b93506114aa818560208601611caf565b80840191505092915050565b60006114c36015836118d2565b91507f4f6e6c79206f776e65722063616e2075706461746500000000000000000000006000830152602082019050919050565b6000611503601f836118d2565b91507f4f6e6c792063757272656e74206f776e65722063616e207472616e73666572006000830152602082019050919050565b60006115436012836118d2565b91507f496e76616c69642070726f6475637420494400000000000000000000000000006000830152602082019050919050565b60006115836019836118d2565b91507f496e76616c6964206e6577206f776e65722061646472657373000000000000006000830152602082019050919050565b60006115c36019836118e3565b91507f5472616e73666572726564206f776e65727368697020746f20000000000000006000830152601982019050919050565b6115ff81611c89565b82525050565b6000611610826115b6565b915061161c8284611485565b915081905092915050565b600060c0820190508181036000830152611641818961144c565b90508181036020830152611655818861144c565b905061166460408301876115f6565b8181036060830152611676818661144c565b90506116856080830185611404565b61169260a0830184611380565b979650505050505050565b600060e08201905081810360008301526116b7818a61144c565b905081810360208301526116cb818961144c565b90506116da60408301886115f6565b81810360608301526116ec818761144c565b90506116fb6080830186611404565b81810360a083015261170d818561138f565b905061171c60c0830184611380565b98975050505050505050565b60006020820190508181036000830152611741816114b6565b9050919050565b60006020820190508181036000830152611761816114f6565b9050919050565b6000602082019050818103600083015261178181611536565b9050919050565b600060208201905081810360008301526117a181611576565b9050919050565b60006020820190506117bd60008301846115f6565b92915050565b60006040820190506117d860008301856115f6565b6117e56020830184611380565b9392505050565b600060408201905061180160008301856115f6565b8181036020830152611813818461144c565b90509392505050565b6000604051905081810181811067ffffffffffffffff8211171561184357611842611dea565b5b8060405250919050565b600067ffffffffffffffff82111561186857611867611dea565b5b601f19601f8301169050602081019050919050565b6000819050602082019050919050565b600081519050919050565b600081519050919050565b6000602082019050919050565b600082825260208201905092915050565b600082825260208201905092915050565b600082825260208201905092915050565b600081905092915050565b60006118f982611c89565b915061190483611c89565b9250827fffffffffffffffffffffffffffffffffffffffffffffffffffffffffffffffff0382111561193957611938611d5d565b5b828201905092915050565b600061194f82611c93565b915061195a83611c93565b92508260ff038211156119705761196f611d5d565b5b828201905092915050565b600061198682611c89565b915061199183611c89565b9250826119a1576119a0611d8c565b5b828204905092915050565b60006119b782611c93565b91506119c283611c93565b9250826119d2576119d1611d8c565b5b828204905092915050565b6000808291508390505b6001851115611a2757808604811115611a0357611a02611d5d565b5b6001851615611a125780820291505b8081029050611a2085611e2a565b94506119e7565b94509492505050565b6000611a3b82611c89565b9150611a4683611c89565b9250611a737fffffffffffffffffffffffffffffffffffffffffffffffffffffffffffffffff8484611a7b565b905092915050565b600082611a8b5760019050611b47565b81611a995760009050611b47565b8160018114611aaf5760028114611ab957611ae8565b6001915050611b47565b60ff841115611acb57611aca611d5d565b5b8360020a915084821115611ae257611ae1611d5d565b5b50611b47565b5060208310610133831016604e8410600b8410161715611b1d5782820a905083811115611b1857611b17611d5d565b5b611b47565b611b2a84848460016119dd565b92509050818404811115611b4157611b40611d5d565b5b81810290505b9392505050565b6000611b5982611c89565b9150611b6483611c89565b9250817fffffffffffffffffffffffffffffffffffffffffffffffffffffffffffffffff0483118215151615611b9d57611b9c611d5d565b5b828202905092915050565b6000611bb382611c93565b9150611bbe83611c93565b92508160ff0483118215151615611bd857611bd7611d5d565b5b828202905092915050565b6000611bee82611c89565b9150611bf983611c89565b925082821015611c0c57611c0b611d5d565b5b828203905092915050565b6000611c2282611c93565b9150611c2d83611c93565b925082821015611c4057611c3f611d5d565b5b828203905092915050565b6000611c5682611c69565b9050919050565b60008115159050919050565b600073ffffffffffffffffffffffffffffffffffffffff82169050919050565b6000819050919050565b600060ff82169050919050565b82818337600083830152505050565b60005b83811015611ccd578082015181840152602081019050611cb2565b83811115611cdc576000848401525b50505050565b60006002820490506001821680611cfa57607f821691505b60208210811415611d0e57611d0d611dbb565b5b50919050565b6000611d1f82611c89565b91507fffffffffffffffffffffffffffffffffffffffffffffffffffffffffffffffff821415611d5257611d51611d5d565b5b600182019050919050565b7f4e487b7100000000000000000000000000000000000000000000000000000000600052601160045260246000fd5b7f4e487b7100000000000000000000000000000000000000000000000000000000600052601260045260246000fd5b7f4e487b7100000000000000000000000000000000000000000000000000000000600052602260045260246000fd5b7f4e487b7100000000000000000000000000000000000000000000000000000000600052604160045260246000fd5b6000601f19601f8301169050919050565b60008160011c9050919050565b611e4081611c4b565b8114611e4b57600080fd5b50565b611e5781611c89565b8114611e6257600080fd5b5056fea2646970667358221220e549b21d12769b1c27a5e258a01e0d574dde2c823ed8fee2e9e0d5448d05eb4a64736f6c63430008000033",
  "immutableReferences": {},
  "source": "// SPDX-License-Identifier: MIT\r\npragma solidity ^0.8.0;\r\n\r\ncontract CosmeticsTraceability {\r\n    struct Product {\r\n        string name;              // Tn sn phm\r\n        string batchID;           // M l\r\n        uint manufactureDate;     // Ngy sn xut (timestamp)\r\n        string origin;            // Ngun gc\r\n        bool isAuthentic;         // Xc thc (true nu chnh hng)\r\n        string[] history;         // Lch s trng thi (mng string)\r\n        address owner;            // Quyn s hu (address ETH ca owner hin ti)\r\n    }\r\n\r\n    mapping(uint => Product) public products; // Map ID sn phm -> chi tit\r\n    uint public productCount = 0;             // m sn phm\r\n\r\n    event ProductCreated(uint id, string name);\r\n    event StatusUpdated(uint id, string newStatus);\r\n    event OwnershipTransferred(uint id, address newOwner); // Event cho chuyn giao\r\n\r\n    // Hm to sn phm (ch nh sn xut gi)\r\n    function createProduct(\r\n        string memory _name,\r\n        string memory _batchID,\r\n        uint _manufactureDate,\r\n        string memory _origin\r\n    ) public {\r\n        productCount++;\r\n        products[productCount] = Product(\r\n            _name,\r\n            _batchID,\r\n            _manufactureDate,\r\n            _origin,\r\n            true,\r\n            new string[](0), // Khi to mng rng ng c php\r\n            msg.sender       // Owner ban u l ngi gi hm (nh sn xut)\r\n        );\r\n        products[productCount].history.push(\"Created by Manufacturer\");\r\n        emit ProductCreated(productCount, _name);\r\n    }\r\n\r\n    // Hm cp nht trng thi (ch owner hin ti gi c)\r\n    function updateStatus(uint _id, string memory _newStatus) public {\r\n        require(_id <= productCount && _id > 0, \"Invalid product ID\");\r\n        require(products[_id].owner == msg.sender, \"Only owner can update\"); // Restrict quyn\r\n        products[_id].history.push(_newStatus);\r\n        emit StatusUpdated(_id, _newStatus);\r\n    }\r\n\r\n    // Hm chuyn giao quyn s hu (ch owner hin ti gi)\r\n    function transferOwnership(uint _id, address _newOwner) public {\r\n        require(_id <= productCount && _id > 0, \"Invalid product ID\");\r\n        require(products[_id].owner == msg.sender, \"Only current owner can transfer\");\r\n        require(_newOwner != address(0), \"Invalid new owner address\");\r\n        products[_id].owner = _newOwner;\r\n        products[_id].history.push(string(abi.encodePacked(\"Transferred ownership to \", toAsciiString(_newOwner))));\r\n        emit OwnershipTransferred(_id, _newOwner);\r\n    }\r\n\r\n    // Hm xc thc (ngi dng qut QR, tr v thm owner)\r\n    function verifyProduct(uint _id)\r\n        public\r\n        view\r\n        returns (\r\n            string memory name,\r\n            string memory batchID,\r\n            uint manufactureDate,\r\n            string memory origin,\r\n            bool isAuthentic,\r\n            string[] memory history,\r\n            address owner  // Tr v owner\r\n        )\r\n    {\r\n        require(_id <= productCount && _id > 0, \"Invalid product ID\");\r\n        Product memory p = products[_id];\r\n        return (\r\n            p.name,\r\n            p.batchID,\r\n            p.manufactureDate,\r\n            p.origin,\r\n            p.isAuthentic,\r\n            p.history,\r\n            p.owner  // Mi\r\n        );\r\n    }\r\n\r\n    // Helper  convert address thnh string ( sa type conversion)\r\n    function toAsciiString(address x) internal pure returns (string memory) {\r\n        bytes memory s = new bytes(40);\r\n        for (uint i = 0; i < 20; i++) {\r\n            bytes1 b = bytes1(uint8(uint(uint160(x)) / (2**(8*(19 - i)))));\r\n            bytes1 hi = bytes1(uint8(b) / 16);\r\n            bytes1 lo = bytes1(uint8(b) - 16 * uint8(hi));\r\n            s[2*i] = char(hi);\r\n            s[2*i+1] = char(lo);\r\n        }\r\n        return string(s);\r\n    }\r\n\r\n    function char(bytes1 b) internal pure returns (bytes1 c) {\r\n        if (uint8(b) < 10) return bytes1(uint8(b) + 0x30);\r\n        else return bytes1(uint8(b) + 0x57);\r\n    }\r\n}",
  "sourcePath": "D:\\blockchain-cosmetics\\contracts\\CosmeticsTraceability.sol",
  "compiler": {
    "name": "solc",
    "version": "0.8.0+commit.c7dfd78e.Emscripten.clang"
  },
  "schemaVersion": "3.4.16",
  "updatedAt": "2026-02-12T06:31:51.066Z",
  "networkType": "ethereum",
  "devdoc": {
    "kind": "dev",
    "methods": {},
    "version": 1
  },
  "userdoc": {
    "kind": "user",
    "methods": {},
    "version": 1
  }
}